{"abi":[{"type":"constructor","inputs":[{"name":"_eduTokenAddress","type":"address","internalType":"address"}],"stateMutability":"nonpayable"},{"type":"function","name":"attemptQuiz","inputs":[{"name":"_score","type":"uint256","internalType":"uint256"}],"outputs":[],"stateMutability":"nonpayable"},{"type":"function","name":"distributeRewards","inputs":[],"outputs":[],"stateMutability":"nonpayable"},{"type":"function","name":"eduToken","inputs":[],"outputs":[{"name":"","type":"address","internalType":"contract ERC20"}],"stateMutability":"view"},{"type":"function","name":"getEndOfCurrentMonth","inputs":[],"outputs":[{"name":"","type":"uint256","internalType":"uint256"}],"stateMutability":"view"},{"type":"function","name":"getStartOfCurrentMonth","inputs":[],"outputs":[{"name":"","type":"uint256","internalType":"uint256"}],"stateMutability":"view"},{"type":"function","name":"poolAddress","inputs":[],"outputs":[{"name":"","type":"address","internalType":"address"}],"stateMutability":"view"},{"type":"function","name":"totalAttempts","inputs":[],"outputs":[{"name":"","type":"uint256","internalType":"uint256"}],"stateMutability":"view"},{"type":"function","name":"totalPool","inputs":[],"outputs":[{"name":"","type":"uint256","internalType":"uint256"}],"stateMutability":"view"},{"type":"function","name":"userAddresses","inputs":[{"name":"","type":"uint256","internalType":"uint256"}],"outputs":[{"name":"","type":"address","internalType":"address"}],"stateMutability":"view"},{"type":"function","name":"users","inputs":[{"name":"","type":"address","internalType":"address"}],"outputs":[{"name":"score","type":"uint256","internalType":"uint256"},{"name":"lastAttemptTimestamp","type":"uint256","internalType":"uint256"}],"stateMutability":"view"},{"type":"event","name":"QuizAttempted","inputs":[{"name":"user","type":"address","indexed":true,"internalType":"address"},{"name":"score","type":"uint256","indexed":false,"internalType":"uint256"}],"anonymous":false},{"type":"event","name":"RewardsDistributed","inputs":[{"name":"totalRewards","type":"uint256","indexed":false,"internalType":"uint256"},{"name":"x","type":"uint256","indexed":false,"internalType":"uint256"}],"anonymous":false}],"bytecode":{"object":"0x6080604052600180546001600160a01b0319167351cbc462c24616ee85b43a657b304166de0dc7cc179055348015603557600080fd5b50604051610a97380380610a978339810160408190526052916076565b600080546001600160a01b0319166001600160a01b039290921691909117905560a4565b600060208284031215608757600080fd5b81516001600160a01b0381168114609d57600080fd5b9392505050565b6109e4806100b36000396000f3fe608060405234801561001057600080fd5b506004361061009e5760003560e01c80636f4a2cd0116100665780636f4a2cd01461010d5780638d87888914610117578063a87430ba1461012a578063b0d2153814610166578063ecfb49a31461017957600080fd5b8063027563fe146100a35780631228f910146100be5780631755ff21146100c75780632621085c146100f2578063502c9bd5146100fa575b600080fd5b6100ab610182565b6040519081526020015b60405180910390f35b6100ab60025481565b6001546100da906001600160a01b031681565b6040516001600160a01b0390911681526020016100b5565b6100ab6101ae565b6100da61010836600461086c565b6101bd565b6101156101e7565b005b6000546100da906001600160a01b031681565b610151610138366004610885565b6004602052600090815260409020805460019091015482565b604080519283526020830191909152016100b5565b61011561017436600461086c565b6103a0565b6100ab60035481565b600061019162278d00426108cb565b61019c9060016108ed565b6101a99062278d00610906565b905090565b600061019c62278d00426108cb565b600581815481106101cd57600080fd5b6000918252602090912001546001600160a01b0316905081565b6101ef610182565b42101561024d5760405162461bcd60e51b815260206004820152602160248201527f49742773206e6f742074686520656e64206f6620746865206d6f6e74682079656044820152601d60fa1b60648201526084015b60405180910390fd5b6000601960025461025e91906108cb565b9050600081600260035461027291906108cb565b61027c91906108cb565b90506000610289836105a9565b905060005b838110156103505760005460015483516001600160a01b03928316926323b872dd9216908590859081106102c4576102c461091d565b60209081029190910101516040516001600160e01b031960e085901b1681526001600160a01b03928316600482015291166024820152604481018690526064016020604051808303816000875af1158015610323573d6000803e3d6000fd5b505050506040513d601f19601f820116820180604052508101906103479190610933565b5060010161028e565b507f29e98ba00d07f171959c4ddcd2f3020debc7c52cf537a034d7e664340d098c6c61037c8484610906565b60408051918252602082018690520160405180910390a161039b61080c565b505050565b6103a86101ae565b4210156103f75760405162461bcd60e51b815260206004820152601d60248201527f546f75726e616d656e74206861736e27742073746172746564207965740000006044820152606401610244565b6103ff610182565b42106104445760405162461bcd60e51b8152602060048201526014602482015273151bdd5c9b985b595b9d081a185cc8195b99195960621b6044820152606401610244565b33600090815260046020526040812060018101549091036104a257600580546001810182556000919091527f036b6384b5eca791c62761152d0c79bb0604c104a5fb6f4eb0703f3154bb3db00180546001600160a01b031916331790555b818160000160008282546104b691906108ed565b9091555050426001820155600280549060006104d183610955565b91905055506103e8600360008282546104ea91906108ed565b90915550506000546001546040516323b872dd60e01b81523360048201526001600160a01b0391821660248201526103e860448201529116906323b872dd906064016020604051808303816000875af115801561054b573d6000803e3d6000fd5b505050506040513d601f19601f8201168201806040525081019061056f9190610933565b5060405182815233907fb1635bf10359a83d3dd905bd3a1bee68d37418d7622292d1d1585c44fef598829060200160405180910390a25050565b606060008267ffffffffffffffff8111156105c6576105c661096e565b6040519080825280602002602001820160405280156105ef578160200160208202803683370190505b50905060008367ffffffffffffffff81111561060d5761060d61096e565b604051908082528060200260200182016040528015610636578160200160208202803683370190505b50905060005b600554811015610803576000600460006005848154811061065f5761065f61091d565b60009182526020808320909101546001600160a01b0316835282019290925260400181205491505b868110156107f9578381815181106106a1576106a161091d565b60200260200101518211156107f15760006106bd600189610984565b90505b8181111561076957846106d4600183610984565b815181106106e4576106e461091d565b60200260200101518582815181106106fe576106fe61091d565b602090810291909101015285610715600183610984565b815181106107255761072561091d565b602002602001015186828151811061073f5761073f61091d565b6001600160a01b03909216602092830291909101909101528061076181610997565b9150506106c0565b508184828151811061077d5761077d61091d565b6020026020010181815250506005838154811061079c5761079c61091d565b9060005260206000200160009054906101000a90046001600160a01b03168582815181106107cc576107cc61091d565b60200260200101906001600160a01b031690816001600160a01b0316815250506107f9565b600101610687565b505060010161063c565b50909392505050565b6000600281905560038190555b600554811015610869576000600460006005848154811061083c5761083c61091d565b60009182526020808320909101546001600160a01b03168352820192909252604001902055600101610819565b50565b60006020828403121561087e57600080fd5b5035919050565b60006020828403121561089757600080fd5b81356001600160a01b03811681146108ae57600080fd5b9392505050565b634e487b7160e01b600052601160045260246000fd5b6000826108e857634e487b7160e01b600052601260045260246000fd5b500490565b80820180821115610900576109006108b5565b92915050565b8082028115828204841417610900576109006108b5565b634e487b7160e01b600052603260045260246000fd5b60006020828403121561094557600080fd5b815180151581146108ae57600080fd5b600060018201610967576109676108b5565b5060010190565b634e487b7160e01b600052604160045260246000fd5b81810381811115610900576109006108b5565b6000816109a6576109a66108b5565b50600019019056fea26469706673582212202e024c4d9e14df5881d81c74679825bbfc7fb6f7de94f1f0b6f1e84911e6245c64736f6c634300081a0033","linkReferences":{}},"methodIdentifiers":{"attemptQuiz(uint256)":"b0d21538","distributeRewards()":"6f4a2cd0","eduToken()":"8d878889","getEndOfCurrentMonth()":"027563fe","getStartOfCurrentMonth()":"2621085c","poolAddress()":"1755ff21","totalAttempts()":"1228f910","totalPool()":"ecfb49a3","userAddresses(uint256)":"502c9bd5","users(address)":"a87430ba"},"id":5}